{
    "contractName": "voting",
    "abi": [
        {
            "inputs": [
                {
                    "internalType": "uint256",
                    "name": "_roll_no",
                    "type": "uint256"
                },
                {
                    "internalType": "string",
                    "name": "_name",
                    "type": "string"
                }
            ],
            "name": "addCandidate",
            "outputs": [],
            "stateMutability": "nonpayable",
            "type": "function"
        },
        {
            "inputs": [],
            "name": "changeStatus",
            "outputs": [],
            "stateMutability": "nonpayable",
            "type": "function"
        },
        {
            "inputs": [
                {
                    "internalType": "uint256",
                    "name": "",
                    "type": "uint256"
                }
            ],
            "name": "index",
            "outputs": [
                {
                    "internalType": "uint256",
                    "name": "roll_no",
                    "type": "uint256"
                },
                {
                    "internalType": "string",
                    "name": "name",
                    "type": "string"
                }
            ],
            "stateMutability": "view",
            "type": "function"
        },
        {
            "inputs": [],
            "name": "status",
            "outputs": [
                {
                    "internalType": "enum voting.registeration",
                    "name": "",
                    "type": "uint8"
                }
            ],
            "stateMutability": "view",
            "type": "function"
        }
    ],
    "bytecode": "60806040526000805460ff1916905534801561001a57600080fd5b506104df8061002a6000396000f3fe608060405234801561001057600080fd5b506004361061004c5760003560e01c8063085634ec146100515780631750a3d01461005b578063200d2ed21461006e578063335932fc14610091575b600080fd5b6100596100b2565b005b6100596100693660046102ff565b6100eb565b60005461007b9060ff1681565b60405161008891906103d0565b60405180910390f35b6100a461009f3660046103f8565b610198565b604051610088929190610411565b6000805460ff1660018111156100ca576100ca6103ba565b14156100df576000805460ff19166001179055565b6000805460ff19169055565b6000805460ff166001811115610103576101036103ba565b14156101945760408051808201909152828152602080820183815260018054808201825560009190915283517fb10e2d527612073b26eecdfd717e6a320cf44b4afac2b0732d9fcbe2b7fa0cf6600290920291820190815591518051859461018f937fb10e2d527612073b26eecdfd717e6a320cf44b4afac2b0732d9fcbe2b7fa0cf701920190610250565b505050505b5050565b600181815481106101a857600080fd5b600091825260209091206002909102018054600182018054919350906101cd9061046e565b80601f01602080910402602001604051908101604052809291908181526020018280546101f99061046e565b80156102465780601f1061021b57610100808354040283529160200191610246565b820191906000526020600020905b81548152906001019060200180831161022957829003601f168201915b5050505050905082565b82805461025c9061046e565b90600052602060002090601f01602090048101928261027e57600085556102c4565b82601f1061029757805160ff19168380011785556102c4565b828001600101855582156102c4579182015b828111156102c45782518255916020019190600101906102a9565b506102d09291506102d4565b5090565b5b808211156102d057600081556001016102d5565b634e487b7160e01b600052604160045260246000fd5b6000806040838503121561031257600080fd5b82359150602083013567ffffffffffffffff8082111561033157600080fd5b818501915085601f83011261034557600080fd5b813581811115610357576103576102e9565b604051601f8201601f19908116603f0116810190838211818310171561037f5761037f6102e9565b8160405282815288602084870101111561039857600080fd5b8260208601602083013760006020848301015280955050505050509250929050565b634e487b7160e01b600052602160045260246000fd5b60208101600283106103f257634e487b7160e01b600052602160045260246000fd5b91905290565b60006020828403121561040a57600080fd5b5035919050565b82815260006020604081840152835180604085015260005b8181101561044557858101830151858201606001528201610429565b81811115610457576000606083870101525b50601f01601f191692909201606001949350505050565b600181811c9082168061048257607f821691505b602082108114156104a357634e487b7160e01b600052602260045260246000fd5b5091905056fea264697066735822122003e68186fd0386b597dc9d9d2e767abf80354f3a9fb68c740c8ce5a7b71300ae64736f6c634300080b0033",
    "sourcePath": "e:/KamandPrompt/Block-Vote/Voting.sol",
    "compiler": {
        "name": "solc",
        "version": "0.8.11+commit.d7f03943"
    },
    "functionHashes": {
        "addCandidate(uint256,string)": "1750a3d0",
        "changeStatus()": "085634ec",
        "index(uint256)": "335932fc",
        "status()": "200d2ed2"
    },
    "gasEstimates": {
        "creation": {
            "codeDepositCost": "249400",
            "executionCost": "24505",
            "totalCost": "273905"
        },
        "external": {
            "addCandidate(uint256,string)": "infinite",
            "changeStatus()": "26503",
            "index(uint256)": "infinite",
            "status()": "2373"
        }
    }
}